:100000000C942A000C9447000C9447000C94470071
:100010000C9447000C942D010C9447000C9447005D
:100020000C9464020C9447000C9447000C94470015
:100030000C9447000C9447000C9447000C94470024
:100040000C9447000C9447000C9447000C94470014
:100050000C94470011241FBECFE5D4E0DEBFCDBF16
:1000600011E0A8E6B1E001C01D92A537B107E1F7A4
:1000700011E0A0E6B0E0E4EAF6E102C005900D92DE
:10008000A836B107D9F70E9449000C94500B0C9484
:100090000000DF93CF93CDB7DEB76A970FB6F89421
:1000A000DEBF0FBECDBF1A8E198E0E94E1020E94E4
:1000B0000202AFE5B0E0EFE5F0E0808180688C936C
:1000C0000E94F6029A8F898F898D9A8D893C9105BD
:1000D00018F40E94250202C00E943A0280E090E0DB
:1000E000A0E2B1E48D8B9E8BAF8BB88F6D897E893A
:1000F0008F89988D2BEA3AEA4AEA5EE30E9402066B
:10010000DC01CB01898B9A8BAB8BBC8B69897A899B
:100110008B899C8920E030E040E85FE30E9408087A
:1001200088231CF481E0888B91C069897A898B8946
:100130009C8920E030E04FE753E40E94A80718169E
:100140000CF07BC06D897E898F89988D20E030E02E
:100150004AE754E40E94FC06DC01CB018C879D87B2
:10016000AE87BF876C857D858E859F8520E030E0DA
:100170004AE753E40E940206DC01CB018887998795
:10018000AA87BB87688579858A859B8520E030E0D2
:1001900040E85FE30E94080888232CF481E090E0A7
:1001A0009F838E833FC0688579858A859B8520E003
:1001B0003FEF4FE757E40E94A80718164CF56C85EF
:1001C0007D858E859F8520E030E040E251E40E94ED
:1001D0000206DC01CB01BC01CD010E942C04DC0134
:1001E000CB019F838E830FC089E190E09D838C8338
:1001F0008C819D810197F1F79D838C838E819F81F6
:1002000001979F838E838E819F81009769F758CFD6
:10021000688579858A859B850E942C04DC01CB0149
:100220009F838E838E819F819B838A838A819B811A
:100230000197F1F79B838A8343CF69897A898B89F8
:100240009C890E942C04DC01CB01888B88898983DE
:1002500089818A95F1F7898333CF1F920F920FB668
:100260000F9211242F933F934F935F936F937F933C
:100270008F939F93AF93BF93EF93FF93DF93CF93AE
:10028000CDB7DEB78091680190916901009729F0A0
:10029000E0916801F09169010995CF91DF91FF919B
:1002A000EF91BF91AF919F918F917F916F915F91EE
:1002B0004F913F912F910F900FBE0F901F90189567
:1002C000DF93CF9300D0CDB7DEB79A838983A1E3C4
:1002D000B0E0E1E3F0E080818F7B8C93EFE4F0E02D
:1002E0008CE08083AEE4B0E0EEE4F0E08081282F83
:1002F000287FE981FA8180819181822B8C93AEE401
:10030000B0E0EEE4F0E08081282F2F7BE981FA81D4
:10031000828193818295880F880F807C822B8C93B9
:10032000ECE4F0E011821082E6E4F0E01182108249
:10033000A9E5B0E0E9E5F0E0808180628C930F9060
:100340000F90CF91DF910895DF93CF9300D0CDB779
:10035000DEB79A83898389819A819093690180931A
:1003600068010F900F90CF91DF910895DF93CF93A5
:1003700000D0CDB7DEB79A838983AEE4B0E0EEE477
:10038000F0E08081982F9F7B89818295880F880F6C
:10039000807C892B8C930F900F90CF91DF910895E3
:1003A000DF93CF93CDB7DEB7E6E4F0E080819181B3
:1003B000CF91DF910895DF93CF93CDB7DEB7ECE413
:1003C000F0E011821082CF91DF910895DF93CF93F7
:1003D000CDB7DEB7EFE4F0E01082EEE4F0E010829B
:1003E000ECE4F0E011821082E6E4F0E01182108289
:1003F000A9E5B0E0E9E5F0E080818F7D8C93CF91B5
:10040000DF910895DF93CF93CDB7DEB7A4E3B0E0DB
:10041000E4E3F0E0808181608C93A4E3B0E0E4E366
:10042000F0E0808182608C93A5E3B0E0E5E3F0E04A
:1004300080818E7F8C93A5E3B0E0E5E3F0E08081DE
:100440008D7F8C93CF91DF910895DF93CF93CDB7BC
:10045000DEB7A5E3B0E0E5E3F0E080818E7F8C932A
:10046000A5E3B0E0E5E3F0E0808182608C93CF917A
:10047000DF910895DF93CF93CDB7DEB7A5E3B0E06A
:10048000E5E3F0E0808181608C93A5E3B0E0E5E3F3
:10049000F0E080818D7F8C93CF91DF910895DF9381
:1004A000CF93CDB7DEB7A5E3B0E0E5E3F0E0808120
:1004B0008E7F8C93A5E3B0E0E5E3F0E080818D7F53
:1004C0008C93CF91DF9108951F920F920FB60F92E8
:1004D00011248F939F93AF93BF93DF93CF93CDB7A7
:1004E000DEB780916B0190916C01A0916D01B0918C
:1004F0006E010196A11DB11D80936B0190936C015B
:10050000A0936D01B0936E01CF91DF91BF91AF9138
:100510009F918F910F900FBE0F901F901895DF93B2
:10052000CF93CDB7DEB780916A018F5F80936A0168
:1005300080916A01813039F40E94DB0180E090E013
:100540000E94B6013BC080916A018230B9F50E94D9
:10055000D0019093700180936F0180916B01909115
:100560006C01A0916D01B0916E012FEF3FEF40E063
:1005700050E0BC01CD010E94FA0A9B01AC018091C0
:100580006F0190917001CC01A0E0B0E0820F931F49
:10059000A41FB51F8093710190937201A093730102
:1005A000B093740110926A0110926B0110926C0169
:1005B00010926D0110926E010E94E601CF91DF91C1
:1005C0000895DF93CF93CDB7DEB7A1E3B0E0E1E3C9
:1005D000F0E0808180628C93A2E3B0E0E2E3F0E09F
:1005E00080818F7D8C93CF91DF910895DF93CF939E
:1005F000CDB7DEB76E970FB6F894DEBF0FBECDBF96
:10060000A9E5B0E0E9E5F0E0808184608C9381E0C9
:1006100090E09C8F8B8F81E090E09E8F8D8F8FE894
:1006200092E00E94A401A2E3B0E0E2E3F0E0808166
:1006300080628C9380E090E0A0E2B1E48D8B9E8B91
:10064000AF8BB88F6D897E898F89988D2BEA3AEAB6
:100650004AEA5EE30E940206DC01CB01898B9A8B99
:10066000AB8BBC8B69897A898B899C8920E030E0CF
:1006700040E85FE30E94080888231CF481E0888B2F
:1006800091C069897A898B899C8920E030E04FE7A5
:1006900053E40E94A80718160CF07BC06D897E8970
:1006A0008F89988D20E030E04AE754E40E94FC06F0
:1006B000DC01CB018C879D87AE87BF876C857D85EC
:1006C0008E859F8520E030E04AE753E40E940206D1
:1006D000DC01CB0188879987AA87BB8768857985E4
:1006E0008A859B8520E030E040E85FE30E940808AF
:1006F00088232CF481E090E09F838E833FC068853F
:1007000079858A859B8520E03FEF4FE757E40E947B
:10071000A80718164CF56C857D858E859F8520E091
:1007200030E040E251E40E940206DC01CB01BC0152
:10073000CD010E942C04DC01CB019F838E830FC06E
:1007400089E190E09D838C838C819D810197F1F7F5
:100750009D838C838E819F8101979F838E838E8161
:100760009F81009769F724C0688579858A859B8574
:100770000E942C04DC01CB019F838E838E819F819C
:100780009B838A838A819B810197F1F79B838A836C
:100790000FC069897A898B899C890E942C04DC01AD
:1007A000CB01888B8889898389818A95F1F7898330
:1007B000A2E3B0E0E2E3F0E080818F7D8C93CE0194
:1007C0004B960E9460018091710190917201A091FD
:1007D0007301B09174012CEF35E840E050E0BC01AA
:1007E000CD010E94FA0ADC01CB01BC01CD010E94BF
:1007F0008C08DC01CB01BC01CD012DEB37E346E8D1
:1008000055E30E940206DC01CB01BC01CD0120E0D2
:1008100030E040E050E40E94FC06DC01CB01BC016A
:10082000CD0120E030E040E450E40E94D505DC0139
:10083000CB01BC01CD010E942C04DC01CB019A8FBD
:10084000898F898D9A8D6E960FB6F894DEBF0FBE94
:10085000CDBFCF91DF910895EF92FF920F931F9339
:100860007B018C0120E030E040E05FE40E94D8078B
:1008700088238CF0C801B70120E030E040E05FE45D
:100880000E94A4050E9438089B01AC012050304012
:100890004040504806C0C801B7010E9438089B017B
:1008A000AC01B901CA011F910F91FF90EF9008951B
:1008B000A0E0B0E0EEE5F4E00C94190BDC012B01B4
:1008C000FA019C91923008F439C1EB0188818230A1
:1008D00008F433C1943069F4843009F02FC11196C3
:1008E0009C9111978981981709F428C1A0E6B0E07E
:1008F00025C1843009F421C18230A9F4923009F075
:100900001DC19A01AD0188E0EA010990AE01E9013B
:1009100009929E018150C1F7E201898111969C9153
:100920008923818308C1923009F407C112962D9062
:100930003C901397EB018A819B811496AD90BD90FA
:10094000CD90DC901797EC80FD800E811F81910186
:10095000281B390BB90137FF04C066277727621BB4
:10096000730B603271050CF061C0121613066CF542
:1009700037014801062E04C09694879477946794B3
:100980000A94D2F721E030E040E050E004C0220FAA
:10099000331F441F551F6A95D2F721503040404005
:1009A00050402E213F21402351232115310541057F
:1009B000510521F021E030E040E050E079018A016A
:1009C000E628F728082919293CC0232BD1F1260E47
:1009D000371E35014601062E04C0969487947794FD
:1009E00067940A94D2F721E030E040E050E004C080
:1009F000220F331F441F551F6A95D2F721503040F4
:100A0000404050402A213B214C215D2121153105D8
:100A10004105510521F021E030E040E050E059016E
:100A20006A01A628B728C828D9280BC082159305C3
:100A30002CF01C01AA24BB24650103C0EE24FF2472
:100A4000870111969C91D20111968C91981709F407
:100A500045C0992339F0A80197012A193B094C098F
:100A60005D0906C0A60195012E193F09400B510BE7
:100A700057FD08C011823382228224833583468346
:100A800057831DC081E08183338222828827992782
:100A9000DC01821B930BA40BB50B84839583A68387
:100AA000B7830DC0220F331F441F551F2483358386
:100AB0004683578382819381019793838283248124
:100AC000358146815781DA01C9010197A109B10930
:100AD0008F5F9F4FAF4FBF4328F30BC0918333828B
:100AE0002282EA0CFB1C0C1D1D1DE482F58206838C
:100AF000178383E08083248135814681578157FFA6
:100B00001AC0C901AA2797FDA095BA2F81709070CD
:100B1000A070B0705695479537952795822B932BEB
:100B2000A42BB52B84839583A683B783828193817D
:100B3000019693838283DF0101C0D201CD01CDB73D
:100B4000DEB7E2E10C94350BA0E2B0E0EAEAF5E0B2
:100B50000C94250B69837A838B839C832D833E833E
:100B60004F835887E9E0EE2EF12CEC0EFD1ECE01EE
:100B70000196B7010E94290A8E010F5E1F4FCE0118
:100B80000596B8010E94290A8A8991E089278A8BF3
:100B9000C701B801AE01475E5F4F0E9458040E9432
:100BA0005409A096E6E00C94410BA0E2B0E0EBED16
:100BB000F5E00C94250B69837A838B839C832D83CA
:100BC0003E834F835887F9E0EF2EF12CEC0EFD1E8B
:100BD000CE010196B7010E94290A8E010F5E1F4FB8
:100BE000CE010596B8010E94290AC701B801AE01DD
:100BF000475E5F4F0E9458040E945409A096E6E0A9
:100C00000C94410BA0E2B0E0E8E0F6E00C94190B84
:100C100069837A838B839C832D833E834F8358879C
:100C2000CE010196BE01675F7F4F0E94290ACE0167
:100C30000596BE016F5E7F4F0E94290A998592300A
:100C400088F089898230C8F0943019F4823051F4E8
:100C500004C0843029F4923081F480E690E0C6C06C
:100C6000923049F420E09A858A89981321E02A87F6
:100C7000CE010996BBC0823049F420E09A858A896A
:100C8000981321E02A8BCE014196B0C02D843E847A
:100C90004F8458886D887E888F88988CEE24FF2436
:100CA0008701AA24BB24650140E050E060E070E0C9
:100CB000E0E0F0E0C10181709070892BE9F0E60C72
:100CC000F71C081D191D9A01AB012A0D3B1D4C1D77
:100CD0005D1D80E090E0A0E0B0E0E614F7040805B8
:100CE000190520F481E090E0A0E0B0E0BA01A9018C
:100CF000480F591F6A1F7B1FAA0CBB1CCC1CDD1C94
:100D000097FE08C081E090E0A0E0B0E0A82AB92AF0
:100D1000CA2ADB2A3196E032F10549F0660C771CCD
:100D2000881C991C5694479437942794C3CFFA850E
:100D3000EA892B893C898B859C85280F391F2E5F7A
:100D40003F4F17C0CA0181709070892B61F01695D2
:100D50000795F794E79480E090E0A0E0B0E8E82AF7
:100D6000F92A0A2B1B2B76956795579547952F5F88
:100D70003F4F77FDE7CF0CC0440F551F661F771F0D
:100D800017FD4160EE0CFF1C001F111F2150304069
:100D9000403090E0590790E0690790E4790760F3EC
:100DA0002B8F3C8FDB01CA018F779070A070B070E1
:100DB00080349105A105B10561F447FD0AC0E11435
:100DC000F1040105110529F0405C5F4F6F4F7F4F23
:100DD00040781A8EFE1711F081E08A8F4D8F5E8F5A
:100DE0006F8F78A383E0898FCE0149960E945409C2
:100DF000A096E2E10C94350BA8E1B0E0E2E0F7E068
:100E00000C94210B69837A838B839C832D833E838F
:100E10004F835887B9E0EB2EF12CEC0EFD1ECE016E
:100E20000196B7010E94290A8E010F5E1F4FCE0165
:100E30000596B8010E94290A2985223008F47EC04F
:100E40003989323010F4B8017CC08A859A898927A3
:100E50008A87243011F0223031F4231709F06EC054
:100E600060E670E06EC0343039F41D861E861F8641
:100E7000188A1C861B8604C0323021F484E08987DE
:100E8000B7015FC02B853C858B899C89281B390B5A
:100E90003C872B87ED84FE840F851889AD88BE883A
:100EA000CF88D88CEA14FB040C051D0540F4EE0C29
:100EB000FF1C001F111F215030403C872B8720E072
:100EC00030E040E050E080E090E0A0E0B0E460E09E
:100ED00070E0EA14FB040C051D0540F0282B392BAB
:100EE0004A2B5B2BEA18FB080C091D09B695A79540
:100EF00097958795EE0CFF1C001F111F6F5F7F4FAA
:100F00006F31710531F7DA01C9018F779070A070E8
:100F1000B07080349105A105B10561F427FD0AC0C8
:100F2000E114F1040105110529F0205C3F4F4F4FFA
:100F30005F4F20782D873E874F87588BBE01675FB4
:100F40007F4FCB010E9454096896EAE00C943D0B58
:100F5000A8E1B0E0EEEAF7E00C94250B69837A8310
:100F60008B839C832D833E834F83588789E0E82EB3
:100F7000F12CEC0EFD1ECE010196B7010E94290A4C
:100F80008E010F5E1F4FCE010596B8010E94290AFF
:100F90008985823040F08989823028F0C701B80104
:100FA0000E94A10A01C08FEF6896E6E00C94410B05
:100FB000A8E1B0E0EEEDF7E00C94250B69837A83AD
:100FC0008B839C832D833E834F83588789E0E82E53
:100FD000F12CEC0EFD1ECE010196B7010E94290AEC
:100FE0008E010F5E1F4FCE010596B8010E94290A9F
:100FF0008985823040F08989823028F0C701B801A4
:101000000E94A10A01C08FEF6896E6E00C94410BA4
:10101000A8E1B0E0EEE0F8E00C94250B69837A8358
:101020008B839C832D833E834F83588789E0E82EF2
:10103000F12CEC0EFD1ECE010196B7010E94290A8B
:101040008E010F5E1F4FCE010596B8010E94290A3E
:101050008985823040F08989823028F0C701B80143
:101060000E94A10A01C081E06896E6E00C94410B61
:10107000ACE0B0E0EEE3F8E00C94290B69837A83EE
:101080008B839C83CE010196BE016B5F7F4F0E94D4
:10109000290A8D81823061F1823050F1843021F44F
:1010A0008E81882351F12EC02F81388537FD20C0D5
:1010B0006E812F3131051CF06623F9F023C08EE1DB
:1010C00090E0821B930B29853A854B855C8504C093
:1010D00056954795379527958A95D2F76623B1F0AF
:1010E00050954095309521953F4F4F4F5F4F0EC023
:1010F00020E030E040E050E009C02FEF3FEF4FEF3D
:101100005FE704C020E030E040E050E8B901CA01E8
:101110002C96E2E00C94450BA8E0B0E0E2E9F8E0A0
:101120000C94210B7B018C016115710581059105E2
:1011300019F482E0898360C083E089838EE1C82E40
:10114000D12CDC82CB82ED82FE820F831887C8010E
:10115000B7010E940509FC013197F7FF3BC0222728
:1011600033272E1B3F0B57016801022E04C0D69473
:10117000C794B794A7940A94D2F740E050E060E097
:1011800070E081E090E0A0E0B0E004C0880F991F1B
:10119000AA1FBB1F2A95D2F70197A109B1098E2179
:1011A0009F21A023B1230097A105B10521F041E0C3
:1011B00050E060E070E04A295B296C297D294D836D
:1011C0005E836F8378878EE190E08E1B9F0B9C83FC
:1011D0008B8312C0309781F00E2E04C0EE0CFF1CE2
:1011E000001F111F0A94D2F7ED82FE820F83188729
:1011F000CE1ADF0ADC82CB821A82CE0101960E94CF
:1012000054092896EAE00C943D0BEF92FF920F935D
:101210001F937B018C0180E0E81680E0F80681E0F6
:10122000080780E0180788F48FEFE816F10401053D
:10123000110531F028F088E090E0A0E0B0E017C0A0
:1012400080E090E0A0E0B0E012C080E0E81680E02E
:10125000F80680E0080781E0180728F088E190E0B0
:10126000A0E0B0E004C080E190E0A0E0B0E020E2C7
:1012700030E040E050E0281B390B4A0B5B0B04C008
:1012800016950795F794E7948A95D2F7F701E859F0
:10129000FF4F8081281B310941095109C9011F9164
:1012A0000F91FF90EF900895DF92EF92FF920F93CE
:1012B0001F93FC01E480F58006811781D180808135
:1012C000823048F480E090E0A0E1B0E0E82AF92A1A
:1012D0000A2B1B2BA5C0843009F49FC0823021F457
:1012E000EE24FF24870105C0E114F1040105110576
:1012F00019F4E0E0F0E096C0628173819FEF6238FC
:1013000079070CF05BC022E83FEF261B370B2A3130
:1013100031052CF020E030E040E050E02AC0B80178
:10132000A701022E04C076956795579547950A94B4
:10133000D2F781E090E0A0E0B0E004C0880F991FF0
:10134000AA1FBB1F2A95D2F70197A109B1098E21C7
:101350009F21A023B1230097A105B10521F081E0D1
:1013600090E0A0E0B0E09A01AB01282B392B4A2B8A
:101370005B2BDA01C9018F779070A070B070803458
:101380009105A105B10539F427FF09C0205C3F4F45
:101390004F4F5F4F04C0215C3F4F4F4F5F4FE0E026
:1013A000F0E02030A0E03A07A0E04A07A0E45A07A6
:1013B00010F0E1E0F0E079018A0127C060387105A2
:1013C00064F5FB01E158FF4FD801C7018F7790709A
:1013D000A070B07080349105A105B10539F4E7FE25
:1013E0000DC080E490E0A0E0B0E004C08FE390E0A6
:1013F000A0E0B0E0E80EF91E0A1F1B1F17FF05C092
:1014000016950795F794E794319687E0169507951A
:10141000F794E7948A95D1F705C0EE24FF2487015D
:10142000EFEFF0E06E2F679566276795902F9F7717
:10143000D794DD24D7948E2F8695492F462B582F8D
:101440005D29B701CA011F910F91FF90EF90DF90C6
:101450000895FC01DB01408151812281622F6F7769
:1014600070E0221F2227221F9381892F880F822B51
:10147000282F30E0991F9927991F11969C93119757
:1014800021153105A9F5411551056105710511F4C5
:1014900082E037C082E89FEF13969C938E93129759
:1014A0009A01AB0167E0220F331F441F551F6A9555
:1014B000D1F783E08C930DC0220F331F441F551FBB
:1014C00012968D919C911397019713969C938E93EE
:1014D0001297203080E0380780E0480780E4580702
:1014E00058F314962D933D934D935C93179708955D
:1014F0002F3F310579F4411551056105710519F446
:1015000084E08C93089564FF03C081E08C9312C043
:101510001C9210C02F57304013963C932E93129775
:1015200083E08C9387E0440F551F661F771F8A95D1
:10153000D1F7706414964D935D936D937C931797D8
:1015400008951F93DC01FB019C91923008F447C081
:101550008081823008F443C0943051F411961C917C
:10156000843099F58181682F70E0611B71093FC05B
:10157000843021F0923031F48230B9F181818823B6
:1015800089F12DC011961C9111978230F1F0818163
:101590001817D9F412962D913C911397828193815B
:1015A0008217930794F028173907BCF014968D9191
:1015B0009D910D90BC91A02D24813581468157814C
:1015C000281739074A075B0718F4112341F00AC0AE
:1015D00082179307A407B50740F4112319F061E0BF
:1015E00070E005C06FEF7FEF02C060E070E0CB01FC
:1015F0001F910895629FD001739FF001829FE00DBB
:10160000F11D649FE00DF11D929FF00D839FF00D81
:10161000749FF00D659FF00D9927729FB00DE11D2D
:10162000F91F639FB00DE11DF91FBD01CF0111240A
:1016300008952F923F924F925F926F927F928F9276
:101640009F92AF92BF92CF92DF92EF92FF920F9351
:101650001F93CF93DF93CDB7DEB7CA1BDB0B0FB65B
:10166000F894DEBF0FBECDBF09942A883988488818
:101670005F846E847D848C849B84AA84B984C884AE
:10168000DF80EE80FD800C811B81AA81B981CE0FA5
:10169000D11D0FB6F894DEBF0FBECDBFED0108958A
:0416A000F894FFCFEC
:1016A4000000000000000000000102020303030325
:1016B40004040404040404040505050505050505DE
:1016C40005050505050505050606060606060606BE
:1016D40006060606060606060606060606060606A6
:1016E400060606060606060607070707070707078E
:1016F4000707070707070707070707070707070776
:101704000707070707070707070707070707070765
:101714000707070707070707070707070707070755
:10172400070707070707070708080808080808083D
:101734000808080808080808080808080808080825
:101744000808080808080808080808080808080815
:101754000808080808080808080808080808080805
:1017640008080808080808080808080808080808F5
:1017740008080808080808080808080808080808E5
:1017840008080808080808080808080808080808D5
:1017940008080808080808080808080808080808C5
:0817A4000808080808080808FD
:00000001FF
